:020000040000FA
:1000000020280020C100000039040000E1010000A8
:10001000FFFFFFFFFFFFFFFFFFFFFFFFFFFFFFFFF0
:10002000FFFFFFFFFFFFFFFFFFFFFFFF3B0400009D
:10003000FFFFFFFFFFFFFFFF5F0100003D04000027
:1000400003010000030100000301000003010000A0
:100050000301000003010000030100000301000090
:1000600003010000FFFFFFFF030100000301000088
:10007000030100000301000003010000FFFFFFFF78
:10008000FFFFFFFF03010000030100000301000068
:100090000301000003010000030100000301000050
:1000A000A50500000301000003010000030100009A
:1000B0000301000003010000030100000301000030
:1000C0001048804710488047104800471048016991
:1000D000002910D1416900290DD1816900290AD177
:1000E000C169002907D1BFF34F8F0A490A48C86088
:1000F000BFF34F8FFEE77047FEE7FEE7FEE7FEE740
:10010000FEE7FEE7CD000000BD0400001D01000079
:100110000003084000ED00E00400FA0504488546AD
:1001200000F09EF80048004785020000C046C04627
:1001300020280020EFF3108072B6704780F31088FB
:1001400070472A4A1368012B03D001231360284A01
:100150001060284A11602848284901607047EFF371
:10016000108272B62148016800291DD0002101606B
:100170001F48016800290AD0EFF30981203900687F
:100180000160F0C144464D4656465F46F0C11949EC
:1001900009680968F0C9F0B4F0C9A046A946B2469A
:1001A000BB46F0BC81F3098882F3108804204042EA
:1001B0000047104908600E49002008600B490120E3
:1001C00008600F480F490268114301600A480B4953
:1001D00001600D480068006880F3088862B67047C7
:1001E000EFF3098000B500F0C5FD00BD1000002050
:1001F000080000200C00002004ED00E000000010CA
:1002000020ED00E00000FFFF08ED00E030B50B46F8
:10021000014600202022012409E00D46D5409D42E0
:1002200005D31D469540491B254695404019154666
:10023000521E002DF1DC30BD70B50024254600288B
:1002400001DA01244042002901DA01254942FFF781
:10025000DDFFAC4200D04042002C00D0494270BDCE
:10026000064C0125064E05E0E36807CC2B430C3C09
:1002700098471034B442F7D3FFF754FFF41E000040
:10028000141F000010B501F06FFD002010BD00002C
:10029000F0B596460A461349C000461800230025CB
:1002A000FF2098402C46104216D000200121994092
:1002B0008C461146C1406746394206D087000F215F
:1002C000B9400D437146B9400C43401C0828F0D397
:1002D0003068A843204330600833361D082BDEDD2C
:1002E000F0BD00002020024070B5184D0446686B38
:1002F0004607760F00F02EF815492060330000F015
:100300003DFA081405070714140E1114606000E08C
:100310006160296A6068052909D3400908E0012065
:10032000C003F3E77D200002F0E70020EEE7C840BD
:10033000A060A96A4903490F072902D0C840E060BC
:1003400070BD0321FFF762FFF9E70000008008405D
:1003500000127A000C490868C869C20F4868400A50
:10036000C007C00F0ED00948002A0BD18869C00D04
:100370000007000F00D110208969044A4902890F43
:100380005043C840704700000080084000127A00C7
:100390001FB541090A4A89008A1800212E2800D178
:1003A0000221C006C00E1268032383401A40C240D7
:1003B00054186846FFF798FF029804B0E04010BD5B
:1003C00038800840F0B5084F7C6AFD6A3E6B844374
:1003D0008D439643002B02D004430D4316437C62A9
:1003E000FD623E63F0BD000000800840002A026804
:1003F00001D00A4300E08A4302607047002A01D01E
:10040000416270478162704770B50021012080040D
:1004100001230A46FFF7D6FF0324064DA403012259
:1004200021462846FFF7E2FF012221462846FFF732
:10043000E5FF70BD00400B407047704710B500F0FD
:100440002DFD01F045FA00F035FD10BD30B5184D19
:10045000286AA9694007400FC90D18D0A969CA0DBB
:10046000A96949028B0F696B124C4907490F012991
:100470000FD0114A022915D0032913D0062914D010
:10048000072903D17D210902C140216030BD10221E
:10049000E6E7E969002901DA012200232968064913
:1004A0004A43DA40C240226030BD0121C903EBE774
:1004B000008008400400002000127A00F0B53449A2
:1004C0001020C8603349012008603348016B402484
:1004D0002143016331498A68272AFCD1416A0322FA
:1004E00092029143416241680122D202114341606C
:1004F0008168C908C907FBD04168C908C900C91C7F
:100500004160416B4907490F0329FAD1244B19680F
:10051000C908C900491C19600025056241685E15BB
:10052000B143416001689F153943016041681A1564
:100530001143416081688908C907FBD0016BA14361
:1005400001630168B94301600321090681614168C3
:100550003143416081684908C907FBD01968C9085F
:10056000C900891C196005624168C908C900491C95
:100570004160416B4907490F0129FAD118681021E0
:10058000084318601868090208431860F0BD0000AD
:1005900000810840008308400080084000A1064018
:1005A0000002084010B50D4C2021204600F064F8F0
:1005B00000280BD0204600F0AFF80A4AC1B2084B21
:1005C00010780A29195402D0401C107010BD002167
:1005D0001818417011700120507010BD00000440C7
:1005E00084030020000000203EB500242121224683
:1005F000490201231046FFF7E5FE062210210020E4
:10060000FFF746FE062220210020FFF741FEE120F1
:1006100040020090FF20013069468880CC800C8128
:100620004C81134C204600F02DF801220021204679
:1006300000F081F801221146204600F07CF80D4AB6
:10064000A101116001221146204600F05DF801224F
:100650002021204600F058F801228021204600F099
:1006600053F820220121204600F05BF83EBD000037
:100670000000044000E100E00069084000D00120D3
:100680007047000070B504460D46C88889886268C6
:1006900008432989184B1A401143084369890843C4
:1006A000606001208007844206D11820FFF770FEA9
:1006B0002968FFF7ABFD60621048844206D11A201A
:1006C000FFF766FE2968FFF7A1FD60620C488442CF
:1006D00006D11C20FFF75CFE2968FFF797FD6062DA
:1006E0000848844206D11E20FFF752FE2968FFF712
:1006F0008DFD606270BD0000FCE0FFFF0000044063
:100700000010004000100440002AC26801D00A43D3
:1007100000E08A43C2607047006880B270470160A1
:10072000704710B58368490030248C40A3438A4049
:100730001343836010BD10238B404168002A01D011
:10074000194300E099434160704770B50D46064675
:10075000002404E0304600F006F8641CE4B2295D91
:100760000029F7D170BD10B50446FFF7D8FF8021EE
:100770002046FFF781FF0028F9D010BD30B4744641
:10078000641E2578641CAB4200D21D46635D5B008D
:10079000E31830BC18470000002806D002060D49B7
:1007A000120E03D0C0B2085C401C70470204120E47
:1007B00004D00004000E085C093070470202120EDB
:1007C00004D00002000E085C11307047000E085C77
:1007D00019307047BC1D000002E008C8121F08C194
:1007E000002AFAD170477047002001E001C1121FB2
:1007F000002AFBD170470000FEB5044609A8E0C8F6
:10080000194620461430089BA061226260611030B6
:100810002AC02A461846232100F04CFCE16AA06A4F
:100820000F4B4218121F616A206A00F01BFB214621
:10083000E06120318E754E750020E763A063276468
:10084000206308752067606700900190234620466A
:10085000044A1946443001F0CFF80020FEBD0000E4
:10086000111600001918000010B5029C64086400FD
:1008700044720262C161002143628162CA0012189F
:1008800014325260491C12600129F7DB10BD70B5AB
:1008900005460024E0004019143000F08DFB641C74
:1008A000012CF7DB70BD70B50446FFF743FC216FE8
:1008B0000546002901D0204688472846FFF73EFC20
:1008C00070BD00000126B6030F4C75000FA000F0AC
:1008D00025FB002231462046FFF790FD00222946E5
:1008E0002046FFF78BFD642000F015FF0122314602
:1008F0002046FFF783FD012229462046FFF77EFDB3
:10090000642000F008FFE1E700400B405465737479
:100910002054687265616420310A000001250B4C87
:10092000AD030BA000F0FAFA002229462046FFF79B
:1009300065FD642000F0EFFE012229462046FFF706
:100940005DFD642000F0E7FEEBE7000000400B4097
:10095000546573742054687265616420320A000023
:100960007FB50520FF2411490390072501346E4609
:1009700032C600230E4A0FA1104800F0B7FE042033
:1009800003900F496E4632C60C4800230D4A0EA153
:10099000783000F0ABFE002806D1084800F006FFD2
:1009A0000648783000F002FF7FBD00009400002070
:1009B000C50800006C65643100000000940200204E
:1009C000940100201D0900006C65643200000000E5
:1009D00010B5FFF719FDFFF7C3FF002010BD10B5DC
:1009E00000F0F2F8FFF7F4FF10BD000030B5144C32
:1009F0004168226813468918083388420ED04D8812
:100A0000002D0BD16568A94208D0A5688D4200D1A0
:100A1000A0604D6845604968851ACD508168891885
:100A200081420BD04D88002D08D1A568854200D1A8
:100A3000A16044684C604068891AC15030BD000014
:100A40001C000020FFB589B004460E4612A883C8DA
:100A500005900691780601D5484801E047481138CD
:100A60000890F80601D57F087F00F80701D03020F4
:100A700000E02020079000200090B8070DD5002A44
:100A800003DA2D205242009007E0780701D52B2091
:100A900002E0380701D5202000900025002A04D16B
:100AA00030206946087101250CE00C980A2816D000
:100AB0001107090F12090898415C01A841556D1CE6
:100AC000002AF2D11398854200DD139513990598F9
:100AD0002022401A11213940002906D014E0104686
:100AE0000A21FFF793FB0246E5E70099002907D0AA
:100AF000002805DD401E03E0B44200D22270641CD1
:100B00000146401E0029F7DC0099002904D0B442B8
:100B100000D22170401E641CF90605D508E0B442DD
:100B200001D207992170641C0146401E0029F6DCA1
:100B30003023139F791E1391AF420ADDB44200D2D5
:100B40002370641CF5E7B44201D24B5D2370641C32
:100B500000E001A92B466D1E002B07DD069B002B34
:100B6000F1D103E0B44200D22270641C0146401E61
:100B70000029F7DC20460DB0F0BD0000CD1E0000BE
:100B80001CB514210A20FF2301910090013300229B
:100B9000034904A000F01BFD00F008FE1CBD00008E
:100BA000DF0900006D61696E0000000070B5044C43
:100BB000044D02E020688047241DAC42FAD370BD8A
:100BC000E41E0000EC1E000070B5044C044D02E071
:100BD00020688047241DAC42FAD370BDEC1E000093
:100BE000F01E000010B5FFF7A5FA034A5188491C12
:100BF0005180FFF7A3FA10BD7400002010B5FFF775
:100C000099FA0A4C6188491E09B26180002909DC01
:100C100000216180FFF792FA6068002801D000F09F
:100C2000EDFA10BDFFF78AFA10BD00007400002035
:100C300070B5002832D01A4D296888422ED36968D1
:100C400088422BD2044600210C3CC943154800F0D1
:100C500087FB6088F5267601002802D02088B04204
:100C600008D011A000F05AF923886288214615A007
:100C700000F054F9002060802680A868844200D2E9
:100C8000AC6029686068611A401A2969081A2861ED
:100C90002046FFF7ABFE034800F038FB70BD0000B4
:100CA0001C000020FC060020746F20667265652021
:100CB0006120626164206461746120626C6F636BA7
:100CC0003A0A00006D656D3A203078253038782C6E
:100CD000207573656420666C61673A2025642C205A
:100CE0006D6167696320636F64653A2030782530F1
:100CF00034780A00004870471C08002000487047FC
:100D00001C26002010B5FFF7D9FBFFF79FFB114809
:100D10007D21C9000068FFF779FA0F49401E88421B
:100D20000CD80E4948610E480722C3691B021B0AF2
:100D30004C042343C361002088610A61FFF736FF3A
:100D4000FFF7DCFF0446FFF7D5FF214600F0AEFBBE
:100D500010BD000004000020FFFFFF0000E000E0E5
:100D600004ED00E010B501460148FFF7EEFC10BDB0
:100D7000000004400446C16912A000F0CFF815A09D
:100D8000A16900F0CBF817A0616900F0C7F819A0BD
:100D9000216900F0C3F81BA0E16800F0BFF81DA0B6
:100DA000A16800F0BBF81FA0616800F0B7F821A0AF
:100DB000216800F0B3F82348016823A000F0AEF8E2
:100DC000FEE700007073723A203078253038780AD8
:100DD000000000002070633A203078253038780A0F
:100DE00000000000206C723A203078253038780AF4
:100DF000000000007231323A203078253038780A0D
:100E0000000000007230333A203078253038780AFC
:100E1000000000007230323A203078253038780AED
:100E2000000000007230313A203078253038780ADE
:100E3000000000007230303A203078253038780ACF
:100E4000000000007800002068617264206661750F
:100E50006C74206F6E207468726561643A2025732B
:100E60000A000000F0B50646121DD008C000403848
:100E7000094C074600229500521C4451102AFAD30F
:100E8000016200214162816202463032C1624AC27F
:100E900001210906F963F0BDEFBEADDE10B5FFF725
:100EA00049F9034A1178491C1170FFF747F910BD41
:100EB0001800002010B5FFF73DF9034A1178491ECC
:100EC0001170FFF73BF910BD18000020F8B505467A
:100ED00014460E46084600F07FFC37461437002CB7
:100EE00015D0012C17D120362C680CE0212120468A
:100EF000727D095D14388A4204D23946143000F0FC
:100F000034F802E02468AC42F0D1AC4203D1394657
:100F1000284600F02AF80020F8BD00000FB410B5F4
:100F200003ABFF210548029A00F0DCFD0348FFF700
:100F300019FF10BC08BC04B018470000FC050020D5
:100F40000268516002680A60016048607047026888
:100F5000516002680A600160486070470268516031
:100F600002680A6001604860704742681160426828
:100F70004A604160086070470168814201D10120E8
:100F80007047002070470168814201D101207047FD
:100F90000020704706C808384A6006C80838116043
:100FA00040600060704706C808384A6006C80838C4
:100FB000116040600060704706C808384A6006C883
:100FC000083811604060006070470000F8B50028E4
:100FD00007D0C01C354E8508F068AD00854201D9A8
:100FE0000020F8BD0C2D00D20C250021C94330484B
:100FF00000F0B6F9B0683168F2688646401A944647
:10100000531B4CE00C186288002A47D16268121A00
:101010000C3AAA4242D36268131A2A4618320C3B91
:1010200093422DD343190C33F527CA187F0117803B
:101030000027578067685760906001206360608078
:10104000506862460C32904202D00A460832835001
:10105000306940190C3030617269824200D270618F
:10106000F52040012080744512D1B0684288002AE2
:101070000ED0726890420BD040684018B060F5E71F
:10108000012060806068621A801A32698018E2E785
:10109000074800F03BF920460C30F8BD60688342F9
:1010A000B0D8034800F032F99AE700001C00002095
:1010B000FC06002030B50346CCB2042A18D38107C1
:1010C00016D12502194625432B042B4305E00B605E
:1010D0004B608B60CB601031103A102AF7D201E0E0
:1010E00008C1121F042AFBD20B4601E01C705B1CD6
:1010F000521EFBD230BDF8B50F46064600F040F850
:101100000546C068FFF762FF041E17D00021EA6899
:10111000FFF7D0FF26720020607208223946204671
:1011200000F0B0F9FFF706F8064621460C31281DFD
:10113000FFF706FF3046FFF701F82046F8BD70B50F
:10114000044600202072FEF7F5FF054620460C30CD
:10115000FFF720FF2846FEF7F1FF2046FFF768FD66
:1011600070BD70B5044600202072FEF7E3FF05460F
:1011700020460C30FFF70EFF2846FEF7DFFF70BD5C
:10118000064A00210B01D35C834202D1080180187A
:101190007047491C0429F5DB00207047340000200B
:1011A000F8B5054617460E460846FFF7E9FF044620
:1011B000FFF718FD211D606800E000688842FCD13F
:1011C000FFF71CFD802006432E7208223946284670
:1011D00000F058F9FEF7AEFF064629460C31201DF7
:1011E000FFF7AEFE3046FEF7A9FFF8BD007A000615
:1011F00001D50120704700207047000070B5FEF750
:1012000099FF124C05466088002815D1A068FFF7A9
:10121000C3FA401E0E4AC100515862681439914207
:101220000AD020700B4861600078002808D0104672
:101230001C301C31FEF785FF2846FEF77FFF70BD8E
:1012400010461C301C31FEF77CFFF5E774000020CF
:101250001C0700201800002070B50546FEF76AFF45
:10126000024628462030017D2C4609090901491C07
:101270000175407D0949C000411848681434046074
:101280004868A8614C6069610548A96B8368194387
:1012900081601046FEF752FF70BD00001C07002061
:1012A0007400002070B50546FEF744FF2C46014649
:1012B000143405CC083C426005CC083C10606460E6
:1012C00024603520405D074AC000801802688242D1
:1012D00004D10548AB6B82689A4382600846FEF7EA
:1012E0002DFF70BD1C07002074000020F8B51646C5
:1012F0000A461F4605460221FFF752FF2C461434CA
:10130000AC616C61AE836F720020F8BD70B50446AD
:101310000025FEF70FFF064620461430FFF72CFE8F
:10132000002806D0A08B0D49884210D2401CA08313
:1013300004E06069143800F0F4F901253046FEF746
:10134000FDFE002D01D0FFF759FF002070BD304693
:10135000FEF7F4FE0220C04370BD0000FFFF000056
:1013600073B50446FEF7E6FE0646A08B002805D0BE
:10137000401EA0833046FEF7E1FE22E001980028DF
:1013800021D000F0EDF90546002028632046627A5E
:1013900029461430FFF79AFD0198002809DD2846F8
:1013A000443001AA0021044600F0EEFA204600F085
:1013B00037FB3046FEF7C2FEFFF720FF286B002800
:1013C00000D100207CBD3046FEF7B8FE0120C043AE
:1013D0007CBD000008B509A0FFF7A0FD0AA0FFF73B
:1013E0009DFD12A0009005230122032112A0FFF70A
:1013F00095FD19A0FFF792FD08BD00000A205C20B2
:101400007C202F0A000000002D205254202D202087
:10141000202020546872656164204F706572617489
:10142000696E672053797374656D0A004D6172208F
:101430002031203230323400202F207C205C2020CC
:1014400020202025642E25642E2564206275696C79
:10145000642025730A0000002032303036202D2011
:101460003230323020436F7079726967687420625D
:10147000792072742D746872656164207465616D81
:101480000A00000010B5002A08D003460C781C7032
:10149000491C5B1C002C05D0521EF7D110BD1970E1
:1014A0005B1C00E00021521EF9D110BD0A46C11C90
:1014B0008908930810B589009B00182B20D91C4679
:1014C000183C8C421CD35A1A104C183AE260F5238F
:1014D0005B0121600B800C3200204A6088604880EC
:1014E00050186060038001214180426082600A469A
:1014F000002307A10848FFF7F9FE2068A06010BD8F
:10150000014606A0FFF70AFD10BD00001C000020E8
:101510006865617000000000FC0600206D656D20AC
:10152000696E69742C206572726F722062656769DA
:101530006E206164647265737320307825782C2086
:10154000616E6420656E64206164647265737320EB
:10155000307825780A00000010B50023094A0A4CAB
:1015600053801846C10009194960401C09602028B1
:10157000F8DB1F201070034853600C30936040600C
:10158000006010BD740000201C07002010B5074C3F
:10159000A068FFF701F9401E0549C000085814383B
:1015A00060601C30FEF705FE10BD000074000020D6
:1015B0001C070020044A0020C10089184960096006
:1015C000401CF9D0704700008C0000207047FFB528
:1015D00085B01D4601200E9F0F9E0599FFF78BFDDC
:1015E000041E0DD02846FFF7F1FC00280AD06946FA
:1015F0000396A1C105A90EC92046FFF7FDF82046B4
:1016000009B0F0BD2046FFF79AFD0020F8E7000082
:1016100070B513480468FEF78DFD05462046FFF7B8
:1016200042F92046FFF73EFE0421342001552046B2
:10163000443000F0CDF92046FFF7D8FD01280AD04C
:10164000214614310748FFF782FCFFF7D7FD2846F3
:10165000FEF774FD70BD2046FFF783FDF5E700003F
:10166000780000208000002000F002F8FCE7000075
:1016700070B5FEF75FFD05460E480168814214D043
:1016800001680C4605C90839426005C9083910606F
:101690004960143C0960A06AFFF7CAFA2046FFF7C8
:1016A0004EFD2846FEF74AFDE3E72846FEF746FDD5
:1016B00070BD0000800000201FB5202307481F22B6
:1016C000D9006C460FC40023054A06A1783800F003
:1016D0000DF80248783800F069F81FBDFC040020BE
:1016E000691600007469646C65000000FFB585B080
:1016F0000FAC70CC0F460A4601210598FFF750FD4C
:101700000E986A4671C23946089B079A0598FFF7FA
:1017100073F809B0F0BD10B500F0BEF800F026F87F
:1017200010BD70B504462030007D0007000F022870
:1017300002D00020C04370BDFEF7FCFC05462046E9
:101740001430FFF730FC2046443000F0B3F928464F
:10175000FEF7F4FC2046FFF77FFD002070BD00007F
:10176000014800687047000078000020F1B5FEF7DE
:10177000E1FC05460C480468204600F02DF82046A0
:1017800044306A460021064600F0FEF8304600F07C
:1017900047F92846FEF7D2FCFFF730FD206B801C8E
:1017A00000D120630020F8BD7800002010B501466C
:1017B00020318A7D01234A759340022283630A7592
:1017C000FFF7AFFF03480068002801D0FFF716FDC0
:1017D000002010BD7800002070B504460546203476
:1017E000207D0007000F012802D00020C04370BDFB
:1017F000FEF7A0FC06462846FFF754FD207D0009B1
:101800000001801C20752846443000F053F9304612
:10181000FEF794FC002070BD10B504460120C043C3
:10182000206320461430FFF7BEFB2046FFF714FD6F
:10183000FFF7E4FC10BD000070B5FEF77BFC054629
:1018400013480068014620310E46097D0907090F3B
:10185000012917D182694169914213D0143004469D
:10186000FFF7A1FB707D0B49C000401841680C6078
:1018700041686160446020602846FEF75FFCFFF726
:10188000BDFC02E02846FEF759FC002070BD0000B8
:10189000780000201C07002070B5002802DA002024
:1018A000C04370BD7D25ED002946FEF7C5FC2A46E4
:1018B00004465143501E081854432946FEF7BCFC09
:1018C000001970BD01480068704700001400002036
:1018D00010B508480168491C0160FFF741FF016C21
:1018E000491E016403D1C16B0164FFF7A5FF00F03D
:1018F00003F810BD14000020FEB56846019000906A
:10190000FFF7E0FF0646FEF715FC05462FE01C48F2
:101910001C4904686069143C301A88422CD2204665
:10192000FEF7B5FF607A810702D44008400060727C
:10193000214614310F466846FFF710FBE169206A23
:101940008847FFF7BFFF06466846FFF71CFB0028E5
:101950000DD13846FFF730FB607A810707D5C10704
:1019600005D0400840006072204600F059F8044855
:10197000FFF709FB0028CAD02846FEF7DFFBFEBDB3
:101980008C000020FFFFFF7F70B515460E46044611
:10199000FEF7D0FB3300FEF7F1FE050604090D1239
:1019A0001700616A0FE0296861620DE0617AFD222B
:1019B000114002E0617A02221143617204E0617A0F
:1019C000C90700D001212960FEF7B8FB002070BDD7
:1019D00070B50446FEF7AEFB05462046FEF757FFFE
:1019E000607A4008400060722846FEF7A7FB204658
:1019F000FFF7B7FB002070BDFFB581B00A461F4658
:101A000006460A210B9D0A9CFFF7CAFB23463A466D
:101A1000009530460399FEF727FF05B0F0BD0000A2
:101A2000FEB50446FEF786FB02902046FEF72FFF28
:101A3000607A400840006072FFF744FF616A6D46BB
:101A400043181A48A3628646002200900CE00768FB
:101A5000019EBC46BF1B7E699E4203D0144FF61AFE
:101A6000BE4209D36046685091006858D70001977C
:101A700077447F68B842EAD1002A02D04919083079
:101A80004860521CF0D00948001F0168491C0160E1
:101A9000214614310098FFF761FA607A012108436A
:101AA00060720298FEF74AFB0020FEBD8C00002009
:101AB000FFFFFF7F70B50446407AC0070ED0FEF7E7
:101AC00039FB05462046FEF7E2FE607A40084000FA
:101AD00060722846FEF732FB002070BD0020C04334
:101AE00070BD0000FFB585B0059C06981F46201804
:101AF0000390A04204D20020C0430390001B069034
:101B000008E1252804D003998C427ED220707CE025
:101B100000250423082610220799491C07910878FC
:101B20002D2812D02B2812D0202812D0232812D0F2
:101B3000302812D00B780026F643303B0A2B0FD208
:101B400007A800F026F9064613E01543E4E71D4315
:101B5000E2E73543E0E7202000E001200543DBE732
:101B60002A2806D1491C079140CF002E01DA76427F
:101B70001543079800230178DB432E2913D1401C1D
:101B8000079001780A46303A0A2A04D207A800F0E2
:101B900000F9034604E02A2904D1401C079008CF2D
:101BA000002B00DA0023079900220878682801D06A
:101BB0006C2802D1491C0246079109780A206F2936
:101BC00077D00CDC632922D004DC252972D0582977
:101BD0000DD188E0642901D0692908D187E07029F6
:101BE0006AD0732930D0752973D078297DD00398B5
:101BF000844201D2252020700798641C01780029B6
:101C000069D00398844200D22170641C7FE0E8060A
:101C100009D42020761E002E05DD03998C4200D2C7
:101C20002070641CF6E7387803993F1D8C4200D27F
:101C30002070202003E003998C4200D22070641CA5
:101C4000761E002EF7DC62E002CF002900D140A111
:101C5000002000E0401CB04202D00A5C002AF9D10A
:101C6000002B02DD984200DD1846EA060AD4202245
:101C70003346761E834205DD039B9C4200D22270D0
:101C8000641CF5E7002207E0039B9C4201D20B781D
:101C90002370491C521C641C8242F5DB2021324611
:101CA000761E824233DD039A944200D22170641C76
:101CB000F5E716E010E0FFE7701C02D108260120CE
:101CC000054301930096029504CF10232046039903
:101CD0001AE00EE009E02BE00398844295D225201B
:101CE00014E7082005E040200543102001E0022110
:101CF0000D436C2A01D0682A1DD004CF01930346FE
:101D00000096029520460399FEF79CFE044607982C
:101D1000401C079007980078002800D0F1E606984C
:101D2000002811D0039900208C420BD220700BE0C8
:101D3000401E0790EBE739883F1D8AB2A907DDD521
:101D400012B2DBE72039C877059809B0201AF0BD38
:101D5000284E554C4C290000002070470020704749
:101D6000002070470020704710B5FEF7E3F9FEF73A
:101D7000C9FFFFF72FFBFFF71DFCFFF7EDFBFEF799
:101D8000FFFEFFF723FCFFF797FCFFF7FFFB0020A8
:101D900010BD0246002006E04B1C13600A230978A0
:101DA00058433038081811680B78303B0A2BF3D3AE
:101DB000704710B5FEF718FC002010BD00000100B0
:101DC0000200010003000100020001000400010004
:101DD00002000100030001000200010005000100F3
:101DE00002000100030001000200010004000100E4
:101DF00002000100030001000200010006000100D2
:101E000002000100030001000200010004000100C3
:101E100002000100030001000200010005000100B2
:101E200002000100030001000200010004000100A3
:101E30000200010003000100020001000700010090
:101E40000200010003000100020001000400010083
:101E50000200010003000100020001000500010072
:101E60000200010003000100020001000400010063
:101E70000200010003000100020001000600010051
:101E80000200010003000100020001000400010043
:101E90000200010003000100020001000500010032
:101EA0000200010003000100020001000400010023
:101EB0000200010003000100020001003031323352
:101EC00034353637383961626364656600303132E3
:101ED00033343536373839414243444546000000F3
:101EE000651D00005D1D0000B31D0000591D0000B0
:101EF000611D0000141F000000000020940000007D
:101F0000D8070000A81F0000940000208C270000C4
:101F1000E807000000000000006CDC020000000088
:101F200000000000000000000000000000000000B1
:101F300000000000000000000000000000000000A1
:101F40000000000000000000010000003800002038
:101F50003800002078000000020000004800002047
:101F6000480000202000000005000000580000206C
:101F700058000020300000000A0000006800002027
:101F8000680000202C00000000000000000000009D
:101F90000000000000000000000000000000000041
:081FA000000000000000000039
:04000005000000C136
:00000001FF
